:020000040800F2
:1000000000000120453000089530000895300008B8
:100010009530000895300008953000080000000079
:100020000000000000000000000000009530000803
:1000300095300008000000009530000849270008AE
:100040000000000095300008953000089530000849
:10005000953000089530000875200008953000089C
:100060009530000895300008A12000089530000860
:10007000953000089530000895300008953000084C
:100080009530000895300008953000080000000009
:100090000000000000000000000000009530000893
:1000A000953000089530000895300008953000081C
:1000B000953000089530000895300008953000080C
:1000C00095300008953000089530000895300008FC
:1000D00095300008E12F0008FD2F00080000000007
:1000E00095300008953000089530000800000000A9
:1000F0000000000000000000000000009530000833
:100100000000000095300008953000089530000888
:1001100000000000000000000000000000000000DF
:10012000953000089530000895300008953000089B
:1001300095300008000000000000000000000000F2
:1001400000000000000000000000000095300008E2
:1001500095300008953000089530000819300008E7
:1001600095300008953000080000000000000000F5
:10017000000000000000000000000000000000007F
:10018000000000000000000000000000000000006F
:04019000953000089E
:1001980010B5054C237833B9044B13B10448AFF3B9
:1001A80000800123237010BD7000002000000000B3
:1001B800FC30000808B5034B1BB103490348AFF3F3
:1001C800008008BD0000000074000020FC3000081A
:1001D80081F0004102E000BF83F0004330B54FEAF0
:1001E80041044FEA430594EA050F08BF90EA020F5D
:1001F8001FBF54EA000C55EA020C7FEA645C7FEAF0
:10020800655C00F0E2804FEA5454D4EB5555B8BF12
:100218006D420CDD2C4480EA020281EA030382EA83
:10022800000083EA010180EA020281EA0303362D15
:1002380088BF30BD11F0004F4FEA01314FF4801CE8
:100248004CEA113102D0404261EB410113F0004FFA
:100258004FEA03334CEA133302D0524263EB4303B1
:1002680094EA050F00F0A780A4F10104D5F1200E4F
:100278000DDB02FA0EFC22FA05F2801841F10001AA
:1002880003FA0EF2801843FA05F359410EE0A5F17E
:1002980020050EF1200E012A03FA0EFC28BF4CF0AF
:1002A800020C43FA05F3C01851EBE37101F0004565
:1002B80007D54FF0000EDCF1000C7EEB00006EEB72
:1002C8000101B1F5801F1BD3B1F5001F0CD34908FC
:1002D8005FEA30004FEA3C0C04F101044FEA445253
:1002E80012F5800F80F09A80BCF1004F08BF5FEADA
:1002F800500C50F1000041EB045141EA050130BDBA
:100308005FEA4C0C404141EB0101013C28BFB1F5CB
:10031800801FE9D291F0000F04BF01460020B1FA16
:1003280081F308BF2033A3F10B03B3F120020CDAE9
:100338000C3208DD02F1140CC2F10C0201FA0CF0C7
:1003480021FA02F10CE002F11402D8BFC2F1200C2C
:1003580001FA02F120FA0CFCDCBF41EA0C019040E2
:10036800E41AA2BF01EB0451294330BD6FEA04042B
:100378001F3C1CDA0C340EDC04F11404C4F1200216
:1003880020FA04F001FA02F340EA030021FA04F328
:1003980045EA030130BDC4F10C04C4F1200220FA7F
:1003A80002F001FA04F340EA0300294630BD21FABD
:1003B80004F0294630BD94F0000F83F4801306BF83
:1003C80081F480110134013D4EE77FEA645C18BF77
:1003D8007FEA655C29D094EA050F08BF90EA020F0E
:1003E80005D054EA000C04BF1946104630BD91EA06
:1003F800030F1EBF0021002030BD5FEA545C05D109
:100408004000494128BF41F0004130BD14F5800447
:100418003CBF01F5801130BD01F0004545F0FE41BB
:1004280041F470014FF0000030BD7FEA645C1ABFF0
:10043800194610467FEA655C1CBF0B46024650EA27
:10044800013406BF52EA033591EA030F41F4002153
:1004580030BD00BF90F0000F04BF0021704730B5D9
:100468004FF4806404F132044FF000054FF00001AE
:1004780050E700BF90F0000F04BF0021704730B56F
:100488004FF4806404F1320410F0004548BF404244
:100498004FF000013EE700BF42004FEAE2014FEA99
:1004A80031014FEA02701FBF12F07F4393F07F4F74
:1004B80081F06051704732F07F4208BF704793F077
:1004C8007F4F04BF41F40021704730B54FF460748A
:1004D80001F0004521F000411CE700BF50EA01028D
:1004E80008BF704730B54FF000050AE050EA010236
:1004F80008BF704730B511F0004502D5404261EBA6
:1005080041014FF4806404F132045FEA915C3FF4E6
:10051800D8AE4FF003025FEADC0C18BF03325FEA83
:10052800DC0C18BF033202EBDC02C2F1200300FA34
:1005380003FC20FA02F001FA03FE40EA0E0021FA59
:1005480002F11444BDE600BF70B54FF0FF0C4CF447
:10055800E06C1CEA11541DBF1CEA135594EA0C0FF9
:1005680095EA0C0F00F0DEF82C4481EA030621EA34
:100578004C5123EA4C5350EA013518BF52EA03356F
:1005880041F4801143F4801338D0A0FB02CE4FF021
:100598000005E1FB02E506F00042E0FB03E54FF051
:1005A8000006E1FB03569CF0000F18BF4EF0010E49
:1005B800A4F1FF04B6F5007F64F5407404D25FEA45
:1005C8004E0E6D4146EB060642EAC62141EA5551F8
:1005D8004FEAC52040EA5E504FEACE2EB4F1FD0C3A
:1005E80088BFBCF5E06F1ED8BEF1004F08BF5FEAB8
:1005F800500E50F1000041EB045170BD06F000466A
:1006080046EA010140EA020081EA0301B4EB5C0416
:10061800C2BFD4EB0C0541EA045170BD41F480110E
:100628004FF0000E013C00F3AB8014F1360FDEBF33
:10063800002001F0004170BDC4F10004203C35DA0F
:100648000C341BDC04F11404C4F1200500FA05F392
:1006580020FA04F001FA05F240EA020001F0004233
:1006680021F0004110EBD37021FA04F642EB0601A9
:100678005EEA430E08BF20EAD37070BDC4F10C04D3
:10068800C4F1200500FA04F320FA05F001FA04F297
:1006980040EA020001F0004110EBD37041F1000183
:1006A8005EEA430E08BF20EAD37070BDC4F120058E
:1006B80000FA05F24EEA020E20FA04F301FA05F2F6
:1006C80043EA020321FA04F001F0004121FA04F29E
:1006D80020EA020000EBD3705EEA430E08BF20EA6E
:1006E800D37070BD94F0000F0FD101F000464000A8
:1006F80041EB010111F4801F08BF013CF7D041EA2A
:10070800060195F0000F18BF704703F0004652002D
:1007180043EB030313F4801F08BF013DF7D043EAFE
:100728000603704794EA0C0F0CEA135518BF95EAB4
:100738000C0F0CD050EA410618BF52EA4306D1D13B
:1007480081EA030101F000414FF0000070BD50EA5A
:10075800410606BF1046194652EA430619D094EAE4
:100768000C0F02D150EA013613D195EA0C0F05D1CE
:1007780052EA03361CBF104619460AD181EA030122
:1007880001F0004141F0FE4141F470014FF00000DA
:1007980070BD41F0FE4141F4780170BD70B54FF075
:1007A800FF0C4CF4E06C1CEA11541DBF1CEA1355F5
:1007B80094EA0C0F95EA0C0F00F0A7F8A4EB0504D7
:1007C80081EA030E52EA03354FEA013100F08880CE
:1007D8004FEA03334FF0805545EA131343EA126397
:1007E8004FEA022245EA111545EA10654FEA00264C
:1007F8000EF000419D4208BF964244F1FD0404F505
:10080800407402D25B084FEA3202B61A65EB030560
:100818005B084FEA32024FF480104FF4002CB6EB1D
:10082800020E75EB030E22BFB61A754640EA0C009D
:100838005B084FEA3202B6EB020E75EB030E22BFDD
:10084800B61A754640EA5C005B084FEA3202B6EB1E
:10085800020E75EB030E22BFB61A754640EA9C00DD
:100868005B084FEA3202B6EB020E75EB030E22BFAD
:10087800B61A754640EADC0055EA060E18D04FEA6B
:10088800051545EA16754FEA06164FEAC30343EA0B
:1008980052734FEAC2025FEA1C1CC0D111F4801FD8
:1008A8000BD141EA00014FF000004FF0004CB6E7D1
:1008B80011F4801F04BF01430020B4F1FD0C88BF70
:1008C800BCF5E06F3FF6AFAEB5EB030C04BFB6EB7B
:1008D800020C5FEA500C50F1000041EB045170BD6E
:1008E8000EF0004E4EEA113114EB5C04C2BFD4EB9B
:1008F8000C0541EA045170BD41F480114FF0000E1F
:10090800013C90E645EA060E8DE60CEA135594EA9A
:100918000C0F08BF95EA0C0F3FF43BAF94EA0C0F9D
:100928000AD150EA01347FF434AF95EA0C0F7FF412
:1009380025AF104619462CE795EA0C0F06D152EA66
:1009480003353FF4FDAE1046194622E750EA41064A
:1009580018BF52EA43067FF4C5AE50EA41047FF45B
:100968000DAF52EA43057FF4EBAE12E74A0011D20D
:1009780012F5001211D20DD56FF47873B3EB6252F1
:100988000ED44FEAC12343F0004343EA505323FAFD
:1009980002F070474FF00000704750EA013002D172
:1009A8004FF0FF3070474FF00000704780B584B0BB
:1009B80000AFF860B9601346FB710B4AFB791370FE
:1009C800F86801F030F9B86801F02DF907490848CE
:1009D80001F0F2F9074B01221A70074B00221A7036
:1009E80000BF1037BD4680BD8C00002014310008C0
:1009F800001001408E0000208D00002080B584B0DA
:100A080000AFF860B9607A607B68312B38D9854BC4
:100A18001A78854B1B789A4232D2844B1B78002B6C
:100A28001FD1804B1B780A33DAB27E4B1A707D4B8C
:100A38001B78184601F05EF97D497E4801F0BCF943
:100A48007D497C4801F0B8F9764B1B783033DBB22E
:100A58001946784801F09EF97849764801F0ACF9D2
:100A6800DAE0724B1B78012B40F0D680B86801F0B1
:100A7800DAF8F86801F0D7F86C4B00221A70CBE06E
:100A88007B68312B25D9674B1A78674B1B789A42BC
:100A98001FD9644B1B780A3BDAB2624B1A70614B60
:100AA8001B78184601F026F96549624801F084F977
:100AB8006149604801F080F95A4B1B783033DBB24A
:100AC80019465C4801F066F95C495A4801F074F926
:100AD800A3E07B68312B2AD87B68132B27D9514B8D
:100AE8001A78514B1B789A4221D25649514801F045
:100AF80063F955494F4801F05FF94A4B1B78303389
:100B0800DBB219464B4801F045F94C49494801F018
:100B180053F9464B1B78012B7FD1F86801F083F815
:100B2800B86801F080F8414B00221A7075E07B68C4
:100B3800312B35D87B68132B32D93A4B1A783A4B7C
:100B48001B789A422CD9374B1B780A3BDAB2354BC3
:100B58001A70344B1B78184601F0CCF83B493548DD
:100B680001F02AF93849334801F026F92D4B1B7852
:100B78003033DBB219462F4801F00CF92F492D48C4
:100B880001F01AF9294B1B78012B46D1F86801F0BE
:100B98004AF8B86801F047F8244B00221A703CE084
:100BA8007B68132B33D87B68002B30D01D4B1B7808
:100BB8000A2B1FD91B4B1B780A3BDAB2194B1A7048
:100BC800184B1B78184601F095F82149194801F08F
:100BD800F3F81949174801F0EFF8124B1B78303336
:100BE800DBB21946134801F0D5F81449114801F051
:100BF800E3F812E0B86800F0F5FFF86800F0F2FFDB
:100C08000A4B01221A70002001F016FE05E0114976
:100C1800084801F0D1F800E000BF00BF1037BD461A
:100C280080BD00BF8D0000208C0000208E000020B9
:100C380034310008001001404C31000864310008CC
:100C4800683100088031000898310008B031000888
:100C5800C8310008DC31000880B582B000AF786088
:100C680039603B68002B0BD07B68002B08D03868B4
:100C780000F0B8FF786800F0B5FF002001F0DCFD57
:100C880000BF0837BD4680BD80B483B000AF0346BF
:100C9800FB71FB792B2B02D02D2B07D00DE00B4BD2
:100CA8001B780A33DAB2094B1A7006E0074B1B7837
:100CB8000A3BDAB2054B1A7000BF044B1B78184682
:100CC8000C37BD465DF8047B704700BF8C000020E0
:100CD80080B500AF0249034801F06EF800BF80BD3F
:100CE800F03100080010014080B586B000AFF86010
:100CF800B9607A600023FB75FB68002B13D0BB68D2
:100D0800002B10D07B680A2B0BD8002001F094FD33
:100D1800F86800F067FFB86800F064FF0123FB750E
:100D280001E00023FB75FB7D18461837BD4680BDE2
:100D380080B500AF0A4B5B68DAB20A4B1A70094BF0
:100D48001B786D2B09D16A21074802F08CF8074BF4
:100D580001221A70034B00221A7000BF80BD00BF29
:100D680000440040A300002000100140A100002022
:100D780080B500AF094B5B68DAB2094B1A70084BB3
:100D88001B78184600F0E0FA03461A46054B1A701D
:100D9800034B00221A7000BF80BD00BF0010014045
:100DA800A20000209500002080B400AF034B012270
:100DB8001A7000BFBD465DF8047B7047A400002090
:100DC80080B400AF034B01221A7000BFBD465DF826
:100DD800047B7047A500002080B592B000AF01F0F9
:100DE80091FC01F007FC0021002001F029FC002102
:100DF800022001F025FC0121002001F021FC042142
:100E0800032001F01DFC1121022001F019FC05212D
:100E1800032001F015FC0121022001F011FC002043
:100E280001F0C2FB002301220021252001F05CFB18
:100E3800252001F02FFB002302220021262001F0AB
:100E480053FB262001F026FB0023032200210A2061
:100E580001F04AFB0A2001F01DFB002303220021B8
:100E6800172001F041FB172001F014FB3F4A07F15E
:100E78003C0307CA83E807003D4A07F1300307CA65
:100E880083E8070007F13C03184601F0AFFA07F1C1
:100E98003003184601F0AAFA3649374801F068FECF
:100EA800354801F0C5FF0121334802F037F83348CF
:100EB80002F078F8324A07F1240307CA83E80700EA
:100EC800304A07F1180307CA83E8070007F124032B
:100ED800184601F08BFA07F11803184601F086FA54
:100EE80029492A4801F044FE284801F0A1FF284A70
:100EF80007F10C0307CA83E80700264A3B4607CADE
:100F080083E8070007F10C03184601F06FFA3B4627
:100F1800184601F06BFA204A2049214800F060FD8C
:100F2800204800F0D7FD1F4800F07DFE1E4800F065
:100F3800D1FD1D4800F077FE1C4800F06DFF1C48ED
:100F480000F06AFF00F0A6FF042001F027F8052052
:100F580001F024F80421174801F066F80521164825
:100F680001F062F800BF4837BD4680BD183200085E
:100F7800243200084400002000440040390D0008D5
:100F8800303200083C3200085800002000140140AC
:100F98004832000854320008790D0008300000205B
:100FA8000010014000000020100000202000002058
:100FB80028000020B10D0008C90D000880B582B0D6
:100FC80000AF00F087FF00F09BFF0346A04A1360C4
:100FD8004FF41B7000F048FF9D4B1B681A469D4953
:100FE8009D48FFF781FE0346FB71FB79012B05D174
:100FF8009A499B4800F0E0FE00F0F8FB994B1B78FB
:10100800012B03D0984B1B78012B11D1974B1B78E0
:10101800DBB2012B0CD1042000F0E2FF8D4B8E4A8D
:101028009349944800F02EFC042000F0B7FF1FE01D
:101038008C4B1B78012B03D08B4B1B78012B11D1C8
:101048008D4B1B78DBB2012B0CD1052000F0C8FFBB
:10105800804B814A8649874800F014FC052000F03F
:101068009DFF05E07B4B7C4A8149824800F031FCBA
:10107800824B1B780A2BA4D801A252F823F000BF98
:10108800B5100008C71000082F110008FB10000851
:1010980019110008E71000084D1100086511000833
:1010A800D5100008F51200087D1100086C4800F002
:1010B800AFFCFFF70DFE714B08221A702CE168484F
:1010C80000F0E2FC6D4B08221A7025E1654B1B7895
:1010D800012B40F01E81694B04221A7019E1684BFC
:1010E8001B78184600F0E4FA03461A46634B1A7058
:1010F80012E1644B1B781A4656495748FFF756FCCD
:101108006149574800F058FE5C4B04221A7003E10D
:101118004F4B1B681A464F494F48FFF76FFC574B18
:1011280008221A70F8E0594B1B781A4649494A4870
:1011380000F0F6FB56494A4800F03EFE4F4B0822A5
:101148001A70E9E04349444800F00CFC514944480E
:1011580000F032FE494B01221A70DDE03D493E485D
:10116800FFF77AFD4C493E4800F026FE434B01222A
:101178001A70D1E03C4B1B78012B41D1434B1A78B4
:10118800464B1B789A4203D2454B1B78012B09D05A
:101198003E4B1A78434B1B789A4224D9424B1B7812
:1011A800012B20D13E4B1B78012B0AD12B2000F0BC
:1011B800EBFB03461A46354B1A70394B00221A705E
:1011C8000DE0394B1B78012B09D12D2000F0DCFBF9
:1011D80003461A462D4B1A70334B00221A70274BC0
:1011E80008221A7081E02E4B00221A702E4B002222
:1011F8001A70234B07221A70204B05221A708AE0B6
:10120800184B1B78012B40F086801E4B1A78234B15
:101218001B789A4203D2224B1B78012B09D0194B19
:101228001A78204B1B789A4252D91F4B1B78012BF6
:101238004ED11B4B1B78012B38D12B20FFF724FDF7
:1012480003461A460F4B1A70154B00221A703BE0E2
:1012580098000020100000200000002060320008E4
:1012680000100140A00000209F000020A5000020E1
:101278002800002020000020A40000209500002065
:10128800940000206D000020883200086E000020C5
:10129800AC320008D0320008E43200086C000020AC
:1012A8009C000020960000209D0000201B4B1B780E
:1012B800012B09D12D20FFF7E7FC03461A46184BEE
:1012C8001A70164B00221A70164B08221A700CE07E
:1012D800154B00221A70114B00221A70134B07226B
:1012E8001A70104B05221A7015E014E010491148C5
:1012F80001F0E9FD104B00221A70104B1B68104AD0
:10130800136071210F4801F0AEFD0D4B1B68984723
:1013180002E000BF55E600BF53E600BF9D00002075
:101328006D000020950000209C0000209400002003
:10133800F832000800100140A10000200440000815
:10134800900000200044004080B584B000AF034600
:10135800FB71FB797A2B00F39381612B06DA2B2B37
:1013680000F043812D2B00F0408189E1613B192B6E
:1013780000F2868101A252F823F000BF6914000828
:1013880089160008891600088916000889160008B9
:1013980089160008891600088916000889160008A9
:1013A8009D1500080D150008891600088916000803
:1013B80017140008ED13000889160008891600089C
:1013C80089160008BB140008891600088916000849
:1013D8008916000889160008891600088916000869
:1013E800551500089F4B1B78002B05D19D4B0122FA
:1013F8001A700123FB7349E19A4B1B78012B40F0CB
:101408004581994B01221A700523FB733EE1974BE6
:101418001B78002B19D1934B1B78012B0FD1944BC0
:101428001B78002B05D1914B01221A700223FB7304
:101438002EE18D4B03221A700523FB7328E18A4B9A
:1014480004221A700523FB732DE1884B1B78012BAE
:1014580040F01E81844B02221A700523FB7317E1AA
:10146800834B1B78002B19D17E4B1B78012B0FD196
:101478007E4B1B78002B05D17D4B01221A7003236C
:10148800FB7307E1784B02221A700523FB7301E115
:10149800754B04221A700523FB7304E1744B1B7807
:1014A800012B40F0F780704B03221A700523FB7361
:1014B800F0E06C4B1B78012B19D16C4B1B78002B7F
:1014C8000FD16B4B1B78002B05D1664B00221A708D
:1014D8000023FB73E0E0644B03221A700523FB73BF
:1014E800DAE0614B02221A700523FB73D4E05D4BEE
:1014F8001B78002B40F0D0805B4B04221A70052328
:10150800FB73C9E0574B1B78012B14D1574B1B7841
:10151800012B05D1554B00221A700623FB73BDE041
:10152800524B1B78002B40F0B9804F4B06221A70A3
:101538000523FB73B2E04B4B1B78002B40F0AE80C9
:10154800494B04221A700523FB73A7E0454B1B780F
:10155800012B14D1464B1B78012B05D1444B00229B
:101568001A700723FB739BE0414B1B78002B40F05C
:1015780097803D4B05221A700523FB7390E0394B89
:101588001B78002B40F08C80374B04221A700523FF
:10159800FB7385E0334B1B78002B20D1344B1B7831
:1015A800002B16D1314B1B78002B0CD1314B1B78FB
:1015B800012B02D10923FB7375E02B4B09221A700A
:1015C8000523FB736FE0284B02221A700523FB7377
:1015D80069E0254B03221A700523FB7363E0224B55
:1015E80001221A700523FB735DE01E4B1B78012B4B
:1015F8002DD11E4B1B78002B19D11D4B1B78002BAE
:1016080005D1194B08221A700523FB734AE0FB79B0
:101618002B2B03D1184B01221A7005E0FB792D2BD7
:1016280002D1164B01221A700A23FB733AE0FB79A8
:101638002B2B03D1104B01221A7005E0FB792D2BBF
:1016480002D10E4B01221A700A23FB732AE0054BC4
:101658001B78002B26D1044B04221A700523FB7338
:1016680020E000BF9E000020940000209F00002082
:10167800A0000020A10000209C0000209D00002068
:10168800232000F015F80346FB730CE000BF0AE0C6
:1016980000BF08E000BF06E000BF04E000BF02E0B2
:1016A80000BF00E000BFFB7B18461037BD4680BD79
:1016B80080B584B000AF0346FB71FB79013B082B72
:1016C8005ED801A252F823F0F516000803170008A7
:1016D800111700081F1700083B1700082D170008EE
:1016E800491700086D1700087B1700083149324870
:1016F80000F062FB0823FB7357E030492E4800F0E6
:101708005BFB0823FB7350E02D492B4800F054FB8A
:101718000423FB7349E02B49274800F04DFB0023C5
:10172800FB7342E02849244800F046FB0823FB737A
:101738003BE02649204800F03FFB0823FB7334E0D8
:1017480023491D4800F038FB224B1B78012B02D19E
:101758000823FB7326E0204B1B78012B22D103239F
:10176800FB731FE01D49144800F026FB0823FB7398
:101778001BE01B49104800F01FFB0023FB7314E01B
:1017880018490D4800F018FB174B1B78012B02D1A4
:101798000823FB7308E0144B1B78002B04D10023AB
:1017A800FB7301E000BF00E000BFFB7B1846103769
:1017B800BD4680BD1C330008001001403C330008C2
:1017C8006033000884330008A4330008C4330008D9
:1017D800E43300089F000020A00000202034000807
:1017E8005C340008983400089E00002080B582B060
:1017F80000AF1B491B4800F0DFFA1B4B00221A7090
:101808001A4B00221A701A4B1B681A4619491A48B3
:10181800FFF76AFA0346FB7113E000F05BFB00F088
:101828006FFB0346124A13604FF41B7000F01CFB59
:101838000F4B1B681A460F490F48FFF755FA034626
:10184800FB71FB79012BE8D00C49064800F0B4FA8B
:101858000B4B01221A7000BF0837BD4680BD00BF80
:10186800B434000800100140A00000209F000020B0
:10187800980000201000002000000020E834000834
:101888009500002080B586B000AFF860B9607A6036
:101898003B600423FB757B68002B13D03B68002B4F
:1018A80010D00121386800F0FDF9386800F0BBF964
:1018B8000021786800F0F6F9786800F0B4F905239B
:1018C800FB7501E00423FB75FB7D18461837BD4600
:1018D80080BD80B586B000AFF860B9607A603B60C3
:1018E8000423FB757B68002B13D03B68002B10D0BA
:1018F8000021386800F0D6F9386800F094F9002122
:10190800786800F0CFF9786800F08DF90523FB7549
:1019180001E00423FB75FB7D18461837BD4680BDE2
:1019280080B584B000AFF860B9601346FB710A4A0D
:10193800FB791370FB79184600F0DCF9F86800F0C1
:1019480072F9B86800F06FF90449054800F034FAF4
:1019580000BF1037BD4680BDA60000201C3500081A
:101968000010014080B582B000AF78603960002077
:1019780000F062FF786800F035F9386800F032F955
:1019880000BF0837BD4680BD80B582B000AF0346B2
:10199800FB71FB792B2B02D02D2B0CD017E00F4BB2
:1019A8001B780A33DAB20D4B1A700C4B1B781846A9
:1019B80000F0A0F90BE0094B1B780A3BDAB2074BA1
:1019C8001A70064B1B78184600F094F900BF034BB9
:1019D8001B7818460837BD4680BD00BFA60000200A
:1019E80080B584B000AFF860B9607A60B968F8680B
:1019F80000F0B2F9F86800F0BFF90121F86800F0CA
:101A0800EBF9786800F0FAF900BF1037BD4680BDE1
:101A180080B5FAB000AF07F5F473A3F5F273186058
:101A280007F5F473A3F59273154A1846114640F268
:101A380021131A4601F050FB07F5F473A3F5EE7372
:101A4800104A18461146B5231A4601F045FB07F11E
:101A5800C40207F5F473A3F5F2731146186800F091
:101A6800ABF907F10C0207F5F473A3F5F27311460D
:101A7800186800F0A1F900BF07F5F477BD4680BDEE
:101A8800343500085836000880B5D4B000AF07F5E3
:101A9800A873A3F5A673186007F5A873A3F5A27336
:101AA8000B4A184611464FF4A2731A4601F014FB6C
:101AB80007F10C0207F5A873A3F5A6731146186879
:101AC80000F07AF900BF07F5A877BD4680BD00BFD2
:101AD8001037000880B590B000AF78607B68002BA5
:101AE80003D1012387F83F3076E07B689B7B002B8E
:101AF8003AD17B681B683B637B681B7987F8343075
:101B0800012387F83530002387F83630022387F819
:101B180037307B685B7B87F83830002387F83930AB
:101B280007F13003184600F00DFC7B689B687B6268
:101B38007B681B7B87F82830012387F8293000232E
:101B480087F82A30022387F82B30002387F82C30B7
:101B5800002387F82D3007F12403184600F0F2FB24
:101B6800002387F83F3037E07B689B7B012B30D11F
:101B78007B681B68BB617B681B793B7701237B779C
:101B88000023BB770223FB77002387F8203000234C
:101B980087F8213007F11803184600F0D3FB7B685B
:101BA8009B68FB607B681B7B3B7401237B74002371
:101BB800BB740223FB747B685B7B3B7500237B75DE
:101BC80007F10C03184600F0BDFB002387F83F30EF
:101BD80002E0012387F83F3097F83F301846403736
:101BE800BD4680BD80B584B000AF78607B68002BAF
:101BF80002D10123FB7311E07B6818687B681B79AD
:101C08000022194600F02DFB7B6898687B681B7BD7
:101C18000022194600F025FB0023FB73FB7B1846C6
:101C28001037BD4680BD80B584B000AF78607B6852
:101C3800002B02D10123FB732FE07B689B7B002BD9
:101C480012D17B6818687B681B790122194600F05D
:101C580008FB7B6898687B681B7B0022194600F0AC
:101C680000FB0023FB7318E07B689B7B012B12D1E0
:101C78007B6818687B681B790022194600F0F1FA26
:101C88007B6898687B681B7B0122194600F0E9FA9B
:101C98000023FB7301E00123FB73FB7B184610371D
:101CA800BD4680BD80B485B000AF78600B46FB7040
:101CB8007B68002B02D10123FB7313E0FB78002B18
:101CC80005D17B68FA789A730023FB730AE0FB78E6
:101CD800012B05D17B68FA789A730023FB7301E026
:101CE8000123FB73FB7B18461437BD465DF8047B64
:101CF8007047000080B586B000AF0346FB71154AF7
:101D080007F1080307CA83E8070007F10803184624
:101D180000F06CFB2021002000F0CEFD42F20F7194
:101D2800002000F0FDFE01220621002000F012FE36
:101D3800FB79642202FB03F37B617A6901210020AD
:101D480000F090FE002000F037FD00BF184618375D
:101D5800BD4680BD5438000880B584B000AF7860B7
:101D680039603968786800F003FF0346FB73FB7B32
:101D780018461037BD4680BD80B584B000AF786086
:101D8800786801F055F80346FB73FB7B184610375B
:101D9800BD4680BD80B584B000AF78600B46FB704F
:101DA800FB781946786801F05EF80346FB73FB7B05
:101DB80018461037BD4680BD80B584B000AF786046
:101DC80039603968786801F07EF80346FB73FB7B5D
:101DD80018461037BD4680BD80B584B000AF786026
:101DE8000B46FB70FB781946786801F097F80346B4
:101DF800FB73FB7B18461037BD4680BD80B584B0A9
:101E080000AF7860786801F0B3F80346FB73FB7B9A
:101E180018461037BD4680BD80B586B000AF7860E3
:101E28000023FB757B68002B17D07B681B68BB60A1
:101E38007B681B793B7300237B730023BB730223EE
:101E4800FB7300233B7400237B7407F108031846D7
:101E580000F078FA0123FB7501E00223FB75FB7D96
:101E680018461837BD4680BD80B483B000AF78608F
:101E78007B681B017B6000E000BF7B685A1E7A60AC
:101E8800002BF9D100BF00BF0C37BD465DF8047BBD
:101E98007047000080B586B000AF0C4A07F10C030C
:101EA80007CA83E8070007F10C03184600F04AFA4E
:101EB800074A3B4607CA83E807003B46184600F036
:101EC80041FA00BF1837BD4680BD00BF6038000822
:101ED8006C38000880B500AF01220921064800F0DF
:101EE800C0F90A20FFF7C0FF00220921024800F0CC
:101EF800B8F900BF80BD00BF00000240000000002C
:101F080080B584B000AF0023FB7306E007F10F0330
:101F18001A460A21204800F07BF9FB7B002BF5D0FC
:101F28000023BB600CE0BB680133BB600120FFF7F6
:101F38009BFF07F10F031A460A21174800F068F9BA
:101F4800FB7B012BEFD0BB681846FEF783FA0EA384
:101F5800D3E90023FEF7F8FA02460B461046194665
:101F68000BA3D3E90023FEF7EFFA02460B4610460F
:101F78001946FEF7FBFC03467B607B681846103762
:101F8800BD4680BDAFF30080006F8104C58FA13FBF
:101F980066666666666625400000024080B485B0C5
:101FA80000AF0346FB710123FB73FB79162B0CD89A
:101FB8000A4B1B68FA79012101FA02F21146074A15
:101FC8000B4313600023FB7301E00223FB73FB7BCD
:101FD80018461437BD465DF8047B7047003C014045
:101FE80080B485B000AF0346FB710123FB73FB7916
:101FF800162B0DD80B4B1B68FA79012101FA02F256
:10200800D2431146074A0B4013600023FB7301E0DB
:102018000223FB73FB7B18461437BD465DF8047B2F
:10202800704700BF003C014080B485B000AF7860C5
:102038000B46FB700123FB73FB78162B0AD87B68D1
:10204800002B07D0FB7808497A6841F82320002341
:10205800FB7301E00223FB73FB7B18461437BD4674
:102068005DF8047B704700BFA800002080B500AF72
:10207800074B1B68002B08D0054B1B689847054B7E
:102088005B69044A43F00103536100BF80BD00BF90
:10209800A8000020003C014080B500AF074B1B6939
:1020A800002B08D0054B1B699847054B5B69044A10
:1020B80043F01003536100BF80BD00BFA80000209B
:1020C800003C014080B485B000AF78600B46FB70DF
:1020D8001346BB700023FB737B68002B15D0FB787D
:1020E8000F2B12D8BB78002B0FD0BB78032B0CD842
:1020F8007B681B68B978FA78520001FA02F21A4331
:102108007B681A600123FB7301E00223FB73FB7BEE
:1021180018461437BD465DF8047B704780B485B017
:1021280000AF78600B46FB701346BB700023FB734F
:102138007B68002B11D0FB780F2B0ED8BB78012BB6
:102148000BD87B685B68B978FA7801FA02F21A430F
:102158007B685A600123FB7301E00223FB73FB7B5E
:1021680018461437BD465DF8047B704780B485B0C7
:1021780000AF78600B46FB701346BB700023FB73FF
:102188007B68002B12D0FB780F2B0FD8BB78032B62
:102198000CD87B689B68B978FA78520001FA02F289
:1021A8001A437B689A600123FB7301E00223FB73E7
:1021B800FB7B18461437BD465DF8047B704780B436
:1021C80085B000AF78600B46FB701346BB700023E8
:1021D800FB737B68002B12D0FB780F2B0FD8BB78D2
:1021E800022B0CD87B68DB68B978FA78520001FAC0
:1021F80002F21A437B68DA600123FB7301E00223D1
:10220800FB73FB7B18461437BD465DF8047B7047AB
:1022180080B487B000AFF8600B467A60FB72002389
:10222800FB75FB68002B13D0FB7A0F2B10D87B684B
:10223800002B0DD0FB681A69FB7A22FA03F3DBB294
:1022480003F00103DAB27B681A700123FB7501E021
:102258000223FB75FB7D18461C37BD465DF8047BE1
:10226800704780B485B000AF78600B46FB701346AA
:10227800BB700023FB737B68002B27D0FB780F2BE8
:1022880024D8BB78012B21D8BB78012B0BD17B68D4
:102298005B69FA78012101FA02F21A437B685A61F4
:1022A8000123FB7314E0BB78002B0CD17B685B69BE
:1022B800FA78012101FA02F2D2431A407B685A6186
:1022C8000123FB7304E00223FB7301E00223FB7389
:1022D800FB7B18461437BD465DF8047B704780B415
:1022E80085B000AF78600B46FB701346BB700023C7
:1022F800FB73FB78072B0CD87B681B6AB978FA78D4
:10230800920001FA02F21A437B681A620123FB73F6
:1023180011E0FB780F2B0CD87B685B6AB978FA78E8
:10232800920001FA02F21A437B685A620123FB7396
:1023380001E00323FB73FB7B18461437BD465DF8A9
:10234800047B704780B584B000AF78600023FB73CE
:102358007B68002B43D07B6818687B6819797B6899
:102368005B791A46FFF7AEFE0346FB73FB7B012B36
:102378000AD17B6818687B6819797B689B791A464B
:10238800FFF7CCFE0346FB73FB7B012B0AD17B686E
:1023980018687B6819797B68DB791A46FFF7E6FECF
:1023A8000346FB73FB7B012B0AD17B6818687B68AB
:1023B80019797B685B7A1A46FFF701FF0346FB73BE
:1023C800FB7B012B0DD17B6818687B6819797B68CA
:1023D8001B7A1A46FFF745FF0346FB7301E0032308
:1023E800FB73FB7B18461037BD4680BD80B584B0B3
:1023F80000AF78600023FB737B68002B42D07B68BA
:1024080018687B681B7902221946FFF75BFE0346B2
:10241800FB73FB7B012B0AD17B6818687B681979F1
:102428007B689B791A46FFF779FE0346FB73FB7BB3
:10243800012B0AD17B6818687B6819797B68DB797E
:102448001A46FFF793FE0346FB73FB7B012B0AD169
:102458007B6818687B6819797B685B791A46FFF78F
:102468003EFF0346FB73FB7B012B0DD17B6818688D
:102478007B6819797B681B7A1A46FFF7A0FE03462A
:10248800FB7301E00323FB73FB7B18461037BD4643
:1024980080BD000090B484B000AF0346FB710123F7
:1024A800FB73FB79542B15D80E4AFB795B09D8B21C
:1024B800034652F82330FA7902F01F02012101FA8B
:1024C80002F21446074A0146234342F8213000230A
:1024D800FB7301E00223FB73FB7B18461037BD46F4
:1024E80090BC704700E100E090B484B000AF0446AF
:1024F800084611461A462346FB710346BB710B4634
:102508007B7113463B710123FB73FB79542B41D834
:10251800BB79042B3ED80023BB73BB79042B2ED880
:1025280001A252F823F000BF4B25000875250008CA
:102538005125000863250008452500083B79BB7331
:102548001DE07B79BB731AE07B799B005AB297F93F
:10255800043013435BB2BB7311E07B79DB005AB2E2
:1025680097F9043013435BB2BB7308E07B795B00D7
:102578005AB297F9043013435BB2BB7300BF0949E1
:10258800FB79BA7B1201D2B20B4483F800230023F3
:10259800FB7301E00223FB73FB7B18461037BD4633
:1025A80090BC704700E100E080B485B000AF0346FE
:1025B800FB710123FB73FB79042B0DD80B4B0C4AE1
:1025C8001A60FB791B0243F0BF6343F40033074AE8
:1025D80013600023FB7301E00223FB73FB7B1846A7
:1025E8001437BD465DF8047B704700BF0CED00E072
:1025F8000000FA0580B483B000AF0123FB710F4BD4
:102608009B680E4A23F0030393600C4B1B680B4A2C
:1026180043F0010313600023FB71084B9B6823F40C
:102628007C4323F0F003054A43F080039360FB7971
:1026380018460C37BD465DF8047B704700380240E9
:1026480080B485B000AF03460A46FB711346BB71E0
:102658000123FB73FB79042B48D8BB791F2B45D882
:10266800FB79032B3ED801A252F823F085260008F7
:102678009F260008B9260008D3260008204B1B6BAC
:10268800BA79012101FA02F211461D4A0B4313637C
:102698000023FB7329E01A4B5B6BBA79012101FA1D
:1026A80002F21146164A0B4353630023FB731CE0E6
:1026B800134B1B6CBA79012101FA02F21146104A38
:1026C8000B4313640023FB730FE00D4B5B6CBA796B
:1026D800012101FA02F21146094A0B43536400230F
:1026E800FB7302E00323FB7302E001E00323FB73A7
:1026F800FB7B18461437BD465DF8047B704700BF66
:102708000038024080B400AF0C4B4FF0FF321A6221
:102718000A4B00221A62094B4FF0FF325A62074BEC
:1027280000225A62054B4FF0FF321A61034B002218
:102738001A6100BFBD465DF8047B7047003802404F
:1027480080B582B000AF194B1B68002B2AD000233C
:10275800FB71174B1B78002B16D1164B1B681B0CF3
:10276800DBB203F00103FB71104B1B689847114B58
:102778001B68104A23F0010313600E4B00225A60B5
:102788000C4B00229A600DE0094B1B78012B09D1F4
:10279800084B1B681B0CDBB203F00103FB71034BF6
:1027A8001B68984700BF0837BD4680BD0001002060
:1027B8000401002010E000E080B483B000AF0346BD
:1027C800FB71FB79032B29D801A252F823F000BF33
:1027D800E9270008FB27000809280008172800082F
:1027E8004FF080431B684FF0804243F001031360B1
:1027F80015E00E4B1B680D4A43F0010313600EE011
:102808000B4B1B680A4A43F00103136007E0094BAE
:102818001B68084A43F00103136000E000BF00BFD3
:102828000C37BD465DF8047B704700BF00040040CC
:1028380000080040000C004080B483B000AF03469D
:10284800FB71FB79032B29D801A252F823F000BFB2
:10285800692800087B2800088928000897280008AC
:102868004FF080431B684FF0804223F00103136050
:1028780015E00E4B1B680D4A23F0010313600EE0B0
:102888000B4B1B680A4A23F00103136007E0094B4E
:102898001B68084A23F00103136000E000BF00BF73
:1028A8000C37BD465DF8047B704700BF000400404C
:1028B80000080040000C004080B483B000AF03461D
:1028C8000A46FB711346BB80FB79032B35D801A25E
:1028D80052F823F0ED280008072900081B290008F2
:1028E8002F2900084FF0804300229A624FF080435E
:1028F8009A6ABB884FF0804113438B621EE0124BEB
:1029080000229A62104B9A6ABB880F4913438B6264
:1029180014E00E4B00229A620C4B9A6ABB880B4952
:1029280013438B620AE00A4B00229A62084B9A6AA8
:10293800BB88074913438B6200E000BF00BF0C3718
:10294800BD465DF8047B7047000400400008004065
:10295800000C004080B483B000AF0346FB710B4607
:10296800BB7113467B71FB79002B02D0012B47D03A
:102978006FE07B79013B032B69D801A252F823F061
:1029880099290008052A0008CF290008052A000807
:102998004FF080439B694FF0804223F073039361AB
:1029A8004FF080439B69BA79120111464FF080427B
:1029B8000B4393614FF080431B6A4FF0804243F012
:1029C800010313621BE04FF08043DB694FF0804244
:1029D80023F07303D3614FF08043DB69BA791201A6
:1029E80011464FF080420B43D3614FF080431B6A7E
:1029F8004FF0804243F48073136200E000BF26E08A
:102A08007B79013B032B24D801A252F823F000BFA5
:102A1800292A0008532A0008532A0008532A0008C4
:102A28000F4B9B690E4A23F0730393610C4B9B6910
:102A3800BA79120111460A4A0B439361084B1B6A83
:102A4800074A43F00103136200E000BF01E000BF42
:102A580000E000BF00BF0C37BD465DF8047B70473F
:102A68000004004080B483B000AF03463A60FB71B5
:102A78000B46BB71FB79002B02D0012B25D047E018
:102A8800BB79013B032B40D801A252F823F000BFC9
:102A9800A92A0008B32A0008BD2A0008C72A000886
:102AA8004FF080423B6853630EE04FF080423B6832
:102AB800936309E04FF080423B68D36304E04FF032
:102AC80080423B68136400BF1FE0BB79013B032BC6
:102AD8001DD801A252F823F0F12A0008F92A0008AB
:102AE800012B0008092B00080C4A3B6853630BE0D4
:102AF8000A4A3B68936307E0084A3B68D36303E0EC
:102B0800064A3B68136400BF01E000BF00E000BF55
:102B180000BF0C37BD465DF8047B704700040040D9
:102B280080B483B000AF03463960FB71FB79032B97
:102B38000FD0032B11DC002B02D0012B05D00CE0A9
:102B48004FF080423B68D36208E0074A3B68D36293
:102B580004E0064A3B68D36200E000BF00BF0C37C0
:102B6800BD465DF8047B704700040040000C00403F
:102B780090B585B000AF786039600023FB733B687F
:102B8800002B00F045817B68002B00F041813B68F9
:102B98005B78002B02D0012B72D0E1E03B685B68C8
:102BA8001846FDF757FC4FF000029F4BFDF7CCFC91
:102BB80002460B469AA1D1E90001FDF7EFFD024656
:102BC8000B4610461946FDF7D1FE0346974AA2FB6D
:102BD80003235B091C013B685B681846FDF73AFC58
:102BE8004FF00002904BFDF7AFFC02460B468CA15C
:102BF800D1E90001FDF7D2FD02460B461046194601
:102C0800FDF7B4FE0246894BA3FB02135B0964215E
:102C180001FB03F3D31A1B013233844AA2FB0323BB
:102C28005B0903F0F0031C443B685B681846FDF73A
:102C380011FC4FF000027C4BFDF786FC02460B4668
:102C480077A1D1E90001FDF7A9FD02460B46104620
:102C58001946FDF78BFE0246744BA3FB02135B0972
:102C6800642101FB03F3D31A1B0132336F4AA2FB21
:102C780003235B0903F00F03E2187B689A606FE097
:102C88003B685B681846FDF7E5FB02460B46FDF717
:102C9800A5FA02460B4662A1D1E90001FDF77EFDC7
:102CA80002460B4610461946FDF760FE03465F4A8A
:102CB800A2FB03235B091C013B685B681846FDF710
:102CC800C9FB02460B46FDF789FA02460B4654A19A
:102CD800D1E90001FDF762FD02460B461046194690
:102CE800FDF744FE0246514BA3FB02135B09642126
:102CF80001FB03F3D31ADB0032334C4AA2FB032354
:102D08005B095B0003F4F8731C443B685B68184676
:102D1800FDF7A0FB02460B46FDF760FA02460B469C
:102D28003FA1D1E90001FDF739FD02460B461046E7
:102D38001946FDF71BFE02463C4BA3FB02135B0939
:102D4800642101FB03F3D31ADB003233374AA2FBB9
:102D580003235B0903F00703E2187B689A6000BF4E
:102D68003B685B78DA033B681B7B5B031A433B6871
:102D78001B7A1B031A433B685B7A9B021A433B6826
:102D88009B7A5B0213431A467B68DA603B681B78C0
:102D9800022B14D0022B1FDC002B02D0012B07D0F2
:102DA8001AE07B68DB6843F008027B68DA6013E0AE
:102DB8007B68DB6843F004027B68DA600CE07B68C0
:102DC800DB6843F008027B68DA607B68DB6843F005
:102DD80004027B68DA6000BF3B68DB7A1A033B6851
:102DE8005B7BDB021A433B68DB7B5B021A433B6875
:102DF8009B7B9B021A433B681B7C1B0213431A46AE
:102E08007B681A617B6800221A600123FB7301E06A
:102E18000223FB73FB7B18461437BD4690BD00BFE9
:102E28000000000084D7A741000010401F85EB5127
:102E380080B485B000AF78600023FB737B68002BFB
:102E480008D07B68DB6843F400527B68DA600123B2
:102E5800FB7301E00223FB73FB7B18461437BD4666
:102E68005DF8047B704780B485B000AF78600B468E
:102E7800FB700023FB737B68002B1BD000BF7B68B3
:102E88001B68DB0903F00103002BF8D0FA787B6894
:102E98005A6000BF7B681B689B0903F00103002B85
:102EA800F8D07B681B6823F040027B681A60012316
:102EB800FB7301E00223FB73FB7B18461437BD4606
:102EC8005DF8047B704780B584B000AF78603960E6
:102ED8000023FB737B68002B19D03B68002B16D0AE
:102EE8000023BB600AE03A68BB6813441B781946A4
:102EF8007868FFF7B8FFBB680133BB603A68BB6806
:102F080013441B78002BEED10123FB7301E002234D
:102F1800FB73FB7B18461037BD4680BD80B485B077
:102F280000AF78600B46FB700023FB737B68002BB7
:102F380015D0FB78002B08D0012B0DD17B68DB68FE
:102F480043F020027B68DA6006E07B68DB6823F0E8
:102F580020027B68DA6000BF0123FB7301E00223D3
:102F6800FB73FB7B18461437BD465DF8047B70473E
:102F780080B485B000AF78600023FB737B68002BBA
:102F880005D0074A7B6813600123FB7301E0022325
:102F9800FB73FB7B18461437BD465DF8047B70470E
:102FA8000801002080B485B000AF78600023FB736F
:102FB8007B68002B05D0074A7B6813600123FB73ED
:102FC80001E00223FB73FB7B18461437BD465DF80E
:102FD800047B70470C01002080B500AF034B002232
:102FE8001A60034B1B68984700BF80BD0010014062
:102FF8000801002080B500AF034B00221A60034B84
:103008001B68984700BF80BD004400400C010020A9
:1030180080B500AF034B00221A60034B1B6898472A
:1030280000BF80BD001401401001002080B500AF32
:10303800FDF7D2FEFDF7C2FF00BF80BD0D488546F3
:10304800AFF300800C480D490D4A002302E0D45824
:10305800C4500433C4188C42F9D30A4A0A4C0023DA
:1030680001E013600432A242FBD300F011F8FFF72D
:10307800DDFFFEE7000001200000002070000020B6
:10308800803800087000002014010020FEE70000CE
:1030980070B50D4D0D4C641BA4100026A64209D135
:1030A8000B4D0C4C00F026F8641BA4100026A64219
:1030B80005D170BD55F8043B98470136EEE755F841
:1030C800043B98470136F2E778380008783800085A
:1030D800783800087C3800080A44914200F1FF3330
:1030E80000D1704710B511F8014B03F8014F914218
:1030F800F9D110BDF8B500BFF8BC08BC9E467047B2
:0C310800F8B500BFF8BC08BC9E4670473C
:10311400414343205370656564204C696D69742094
:1031240049732053657474696E67200D0A000000AA
:1031340041434320496E20477265656E2052616E9B
:103144006765200D0A0000004143432043757272F5
:10315400656E74205370656564204973203A2000BD
:103164000D0A000041434320496E20477265656E95
:103174002052616E676532200D0A000041434320EE
:10318400496E20426C75652052616E6765200D0A98
:10319400000000004E6F204368616E676520496E31
:1031A400205370656564203A2000000041434320A9
:1031B400496E20426C75652052616E6765320D0A56
:1031C4000000000041434320496E205265642052B0
:1031D400616E6765200D0A00526561636820537053
:1031E400656564204C696D69740D0A004175746FDE
:1031F4006D6174696320456D657267656E637920DE
:103204004272616B65204973205265616479200DB7
:103214000A00000000000240020700010000000054
:10322400000002400307000100000000000002400B
:103234000B08000100000000000002400C0800011F
:103244000000000000040240060700010000000026
:103254000004024007070001000000004175746F7C
:103264006D6174696320456D657267656E6379206D
:103274004272616B652049732041637469766520ED
:103284000D0A0000546F2053746F70204163632053
:10329400496E20416E792054696D652050726573C2
:1032A40073207A200D0A0000546F2053746F70202D
:1032B4004E636320496E20416E792054696D652008
:1032C4005072657373206B200D0A00004E636320F7
:1032D40049732053746F70706564200D0A000000F8
:1032E4004163632049732053746F70706564200DCB
:1032F4000A0000004361722057696C6C2053746F9C
:103304007020466F7220557064617465204669723E
:103314006D776172650D0A004661756C7420312009
:103324003A2043617220497320416C72656164796B
:10333400204F6E200D0A00004661756C7420322007
:103344003A204E434320497320416C72656164798D
:1033540020416374697665200D0A00004661756C2E
:10336400742033203A2041434320497320416C7236
:103374006561647920416374697665200D0A0000F3
:103384004661756C742034203A204361722049737D
:1033940020416C7265616479204F6666200D0A00D5
:1033A4004661756C742035203A204E43432049739E
:1033B40020416C7265616479204F6666200D0A00B5
:1033C4004661756C742036203A204143432049738A
:1033D40020416C7265616479204F6666200D0A0095
:1033E4004661756C742037203A2053657474696E95
:1033F40067205370656564204F7574204F662054B0
:1034040068652052616E6765204F6620283120541C
:103414006F2031303029200D0A0000004661756CA0
:10342400742038203A2043616E2774204368616E0B
:103434006765205370656564204143432026204E10
:103444004343204973204E6F7420576F726B696E2B
:1034540067200D0A000000004661756C7420392055
:103464003A204E6F204E6577205570646174652054
:10347400466F7220546865204669726D7761726583
:10348400204F6E2054686520536572766572200D56
:103494000A0000004661756C7420203A20496E765B
:1034A400616C6964204F7074696F6E200D0A0000AE
:1034B40043617220696E2064616E6765726F757313
:1034C400207A6F6E6520616C6C2073797374656DFE
:1034D4007320617265207475726E6564206F666610
:1034E400200D0A0043617220696E207361666520B5
:1034F4007A6F6E6520796F752063616E20747572C2
:103504006E206F6E20616E792073797374656D20FF
:10351400616761696E0D0A004E6363204973205729
:103524006F726B696E67204E6F77200D0A00000082
:103534002D2D2D2D2D2D2D2D2D2D2D2D2D2D2D2DB7
:103544002D2D2D2D2D2D2D2D2D2D2D2D2D2D2D2DA7
:103554002D2D0D0A7C202020202020434152204480
:10356400415348424F41524420444953504C4159DD
:1035740020202020207C0D0A2D2D2D2D2D2D2D2DAC
:103584002D2D2D2D2D2D2D2D2D2D2D2D2D2D2D2D67
:103594002D2D2D2D2D2D2D2D2D2D0D0A7C2043610E
:1035A40072205374617475733A205B2020204F4657
:1035B40046202020205D202020202020207C0D0A71
:1035C4007C20436172205370656564203A205B203F
:1035D40020205A45524F2020205D202020202020EA
:1035E400207C0D0A7C204E43432053746174757310
:1035F4003A205B2020204F4646202020205D2020BA
:1036040020202020207C0D0A7C2041434320537439
:10361400617475733A205B2020204F464620202099
:10362400205D202020202020207C0D0A2D2D2D2DF2
:103634002D2D2D2D2D2D2D2D2D2D2D2D2D2D2D2DB6
:103644002D2D2D2D2D2D2D2D2D2D2D2D2D2D0D0AE9
:10365400000000002D2D2D2D2D2D2D2D2D2D2D2D4A
:103664002D2D2D2D2D2D2D2D2D2D2D2D2D2D2D2D86
:103674002D2D2D2D2D2D0D0A7C20202020202043A2
:1036840041522044415348424F41524420444953FB
:10369400504C415920202020207C0D0A2D2D2D2D09
:1036A4002D2D2D2D2D2D2D2D2D2D2D2D2D2D2D2D46
:1036B4002D2D2D2D2D2D2D2D2D2D2D2D2D2D0D0A79
:1036C4007C205455524E20434152204F4E3A205BA9
:1036D400202020204F202020205D2020202020207A
:1036E400207C0D0A2D2D2D2D2D2D2D2D2D2D2D2D07
:1036F4002D2D2D2D2D2D2D2D2D2D2D2D2D2D2D2DF6
:103704002D2D2D2D2D2D0D0A000000002D2D2D2DDC
:103714002D2D2D2D2D2D2D2D2D2D2D2D2D2D2D2DD5
:103724002D2D2D2D2D2D2D2D2D2D2D2D2D2D0D0A08
:103734007C202020202020434152204441534842F1
:103744004F41524420444953504C41592020202099
:10375400207C0D0A2D2D2D2D2D2D2D2D2D2D2D2D96
:103764002D2D2D2D2D2D2D2D2D2D2D2D2D2D2D2D85
:103774002D2D2D2D2D0D0A7C205455524E204E43B7
:1037840043204F4E203A202020205B202020206E12
:103794002020205D202020207C0D0A7C20545552BE
:1037A4004E20414343204F4E203A202020205B20CE
:1037B400202020612020205D202020207C0D0A7CF8
:1037C400205455524E204F4646202020203A202097
:1037D40020205B20202020732020205D202020201A
:1037E4007C0D0A7C205455524E204E4343204F46B4
:1037F400463A202020205B202020206B2020205DC2
:10380400202020207C0D0A7C205455524E20414318
:1038140043204F46463A202020205B202020207A57
:103824002020205D202020207C0D0A2D2D2D2D2DE3
:103834002D2D2D2D2D2D2D2D2D2D2D2D2D2D2D2DB4
:103844002D2D2D2D2D2D2D2D2D2D2D2D2D0D0A0014
:1038540000000240000100010000000000000240DE
:103864000901000100000000000002400A000001FC
:04387400010200004D
:04387800BD01000886
:04387C0099010008A6
:1038800000040240000000000004024001000000AB
:103890000004024002000000000402400A00000090
:1038A0000004024004000000000402400500000083
:1038B0000200000000C20100000000000000000043
:1038C000000000000200000000C201000000000033
:1038D00000000000000000000200000000C2010023
:1038E000000000000000000000000000640A0A0060
:04000005080030457A
:00000001FF
