:020000040800F2
:104000000000012061560008B1560008B1560008B2
:10401000B1560008B1560008B15600080000000073
:10402000000000000000000000000000B156000881
:10403000B156000800000000B1560008B94E000853
:1040400000000000B1560008B1560008B156000843
:10405000B1560008B1560008B1560008B156000824
:10406000B1560008B1560008B1560008B156000814
:10407000B1560008B1560008B1560008B156000804
:10408000B1560008B1560008B15600080000000003
:10409000000000000000000000000000B156000811
:1040A000B1560008B1560008B1560008B1560008D4
:1040B000B1560008B1560008B1560008B1560008C4
:1040C000B1560008B1560008B1560008B1560008B4
:1040D000B1560008295300084553000800000000AD
:1040E000B1560008B1560008B156000800000000A3
:1040F000000000000000000000000000B1560008B1
:1041000000000000B1560008B1560008B156000882
:10411000000000000000000000000000000000009F
:10412000B1560008B1560008B1560008B156000853
:10413000B156000800000000000000000000000070
:10414000000000000000000000000000B156000860
:10415000B1560008B1560008B15600086153000876
:10416000B1560008B1560008000000000000000031
:10417000000000000000000000000000000000003F
:10418000000000000000000000000000000000002F
:04419000B15600081C
:1041980010B5054C237833B9044B13B10448AFF379
:1041A80000800123237010BD1C00002000000000C7
:1041B800FC56000808B5034B1BB103490348AFF38D
:1041C800008008BD0000000020000020FC56000808
:1041D80081F0004102E000BF83F0004330B54FEAB0
:1041E80041044FEA430594EA050F08BF90EA020F1D
:1041F8001FBF54EA000C55EA020C7FEA645C7FEAB0
:10420800655C00F0E2804FEA5454D4EB5555B8BFD2
:104218006D420CDD2C4480EA020281EA030382EA43
:10422800000083EA010180EA020281EA0303362DD5
:1042380088BF30BD11F0004F4FEA01314FF4801CA8
:104248004CEA113102D0404261EB410113F0004FBA
:104258004FEA03334CEA133302D0524263EB430371
:1042680094EA050F00F0A780A4F10104D5F1200E0F
:104278000DDB02FA0EFC22FA05F2801841F100016A
:1042880003FA0EF2801843FA05F359410EE0A5F13E
:1042980020050EF1200E012A03FA0EFC28BF4CF06F
:1042A800020C43FA05F3C01851EBE37101F0004525
:1042B80007D54FF0000EDCF1000C7EEB00006EEB32
:1042C8000101B1F5801F1BD3B1F5001F0CD34908BC
:1042D8005FEA30004FEA3C0C04F101044FEA445213
:1042E80012F5800F80F09A80BCF1004F08BF5FEA9A
:1042F800500C50F1000041EB045141EA050130BD7A
:104308005FEA4C0C404141EB0101013C28BFB1F58B
:10431800801FE9D291F0000F04BF01460020B1FAD6
:1043280081F308BF2033A3F10B03B3F120020CDAA9
:104338000C3208DD02F1140CC2F10C0201FA0CF087
:1043480021FA02F10CE002F11402D8BFC2F1200CEC
:1043580001FA02F120FA0CFCDCBF41EA0C019040A2
:10436800E41AA2BF01EB0451294330BD6FEA0404EB
:104378001F3C1CDA0C340EDC04F11404C4F12002D6
:1043880020FA04F001FA02F340EA030021FA04F3E8
:1043980045EA030130BDC4F10C04C4F1200220FA3F
:1043A80002F001FA04F340EA0300294630BD21FA7D
:1043B80004F0294630BD94F0000F83F4801306BF43
:1043C80081F480110134013D4EE77FEA645C18BF37
:1043D8007FEA655C29D094EA050F08BF90EA020FCE
:1043E80005D054EA000C04BF1946104630BD91EAC6
:1043F800030F1EBF0021002030BD5FEA545C05D1C9
:104408004000494128BF41F0004130BD14F5800407
:104418003CBF01F5801130BD01F0004545F0FE417B
:1044280041F470014FF0000030BD7FEA645C1ABFB0
:10443800194610467FEA655C1CBF0B46024650EAE7
:10444800013406BF52EA033591EA030F41F4002113
:1044580030BD00BF90F0000F04BF0021704730B599
:104468004FF4806404F132044FF000054FF000016E
:1044780050E700BF90F0000F04BF0021704730B52F
:104488004FF4806404F1320410F0004548BF404204
:104498004FF000013EE700BF42004FEAE2014FEA59
:1044A80031014FEA02701FBF12F07F4393F07F4F34
:1044B80081F06051704732F07F4208BF704793F037
:1044C8007F4F04BF41F40021704730B54FF460744A
:1044D80001F0004521F000411CE700BF50EA01024D
:1044E80008BF704730B54FF000050AE050EA0102F6
:1044F80008BF704730B511F0004502D5404261EB66
:1045080041014FF4806404F132045FEA915C3FF4A6
:10451800D8AE4FF003025FEADC0C18BF03325FEA43
:10452800DC0C18BF033202EBDC02C2F1200300FAF4
:1045380003FC20FA02F001FA03FE40EA0E0021FA19
:1045480002F11444BDE600BF70B54FF0FF0C4CF407
:10455800E06C1CEA11541DBF1CEA135594EA0C0FB9
:1045680095EA0C0F00F0DEF82C4481EA030621EAF4
:104578004C5123EA4C5350EA013518BF52EA03352F
:1045880041F4801143F4801338D0A0FB02CE4FF0E1
:104598000005E1FB02E506F00042E0FB03E54FF011
:1045A8000006E1FB03569CF0000F18BF4EF0010E09
:1045B800A4F1FF04B6F5007F64F5407404D25FEA05
:1045C8004E0E6D4146EB060642EAC62141EA5551B8
:1045D8004FEAC52040EA5E504FEACE2EB4F1FD0CFA
:1045E80088BFBCF5E06F1ED8BEF1004F08BF5FEA78
:1045F800500E50F1000041EB045170BD06F000462A
:1046080046EA010140EA020081EA0301B4EB5C04D6
:10461800C2BFD4EB0C0541EA045170BD41F48011CE
:104628004FF0000E013C00F3AB8014F1360FDEBFF3
:10463800002001F0004170BDC4F10004203C35DACF
:104648000C341BDC04F11404C4F1200500FA05F352
:1046580020FA04F001FA05F240EA020001F00042F3
:1046680021F0004110EBD37021FA04F642EB060169
:104678005EEA430E08BF20EAD37070BDC4F10C0493
:10468800C4F1200500FA04F320FA05F001FA04F257
:1046980040EA020001F0004110EBD37041F1000143
:1046A8005EEA430E08BF20EAD37070BDC4F120054E
:1046B80000FA05F24EEA020E20FA04F301FA05F2B6
:1046C80043EA020321FA04F001F0004121FA04F25E
:1046D80020EA020000EBD3705EEA430E08BF20EA2E
:1046E800D37070BD94F0000F0FD101F00046400068
:1046F80041EB010111F4801F08BF013CF7D041EAEA
:10470800060195F0000F18BF704703F000465200ED
:1047180043EB030313F4801F08BF013DF7D043EABE
:104728000603704794EA0C0F0CEA135518BF95EA74
:104738000C0F0CD050EA410618BF52EA4306D1D1FB
:1047480081EA030101F000414FF0000070BD50EA1A
:10475800410606BF1046194652EA430619D094EAA4
:104768000C0F02D150EA013613D195EA0C0F05D18E
:1047780052EA03361CBF104619460AD181EA0301E2
:1047880001F0004141F0FE4141F470014FF000009A
:1047980070BD41F0FE4141F4780170BD70B54FF035
:1047A800FF0C4CF4E06C1CEA11541DBF1CEA1355B5
:1047B80094EA0C0F95EA0C0F00F0A7F8A4EB050497
:1047C80081EA030E52EA03354FEA013100F088808E
:1047D8004FEA03334FF0805545EA131343EA126357
:1047E8004FEA022245EA111545EA10654FEA00260C
:1047F8000EF000419D4208BF964244F1FD0404F5C5
:10480800407402D25B084FEA3202B61A65EB030520
:104818005B084FEA32024FF480104FF4002CB6EBDD
:10482800020E75EB030E22BFB61A754640EA0C005D
:104838005B084FEA3202B6EB020E75EB030E22BF9D
:10484800B61A754640EA5C005B084FEA3202B6EBDE
:10485800020E75EB030E22BFB61A754640EA9C009D
:104868005B084FEA3202B6EB020E75EB030E22BF6D
:10487800B61A754640EADC0055EA060E18D04FEA2B
:10488800051545EA16754FEA06164FEAC30343EACB
:1048980052734FEAC2025FEA1C1CC0D111F4801F98
:1048A8000BD141EA00014FF000004FF0004CB6E791
:1048B80011F4801F04BF01430020B4F1FD0C88BF30
:1048C800BCF5E06F3FF6AFAEB5EB030C04BFB6EB3B
:1048D800020C5FEA500C50F1000041EB045170BD2E
:1048E8000EF0004E4EEA113114EB5C04C2BFD4EB5B
:1048F8000C0541EA045170BD41F480114FF0000EDF
:10490800013C90E645EA060E8DE60CEA135594EA5A
:104918000C0F08BF95EA0C0F3FF43BAF94EA0C0F5D
:104928000AD150EA01347FF434AF95EA0C0F7FF4D2
:1049380025AF104619462CE795EA0C0F06D152EA26
:1049480003353FF4FDAE1046194622E750EA41060A
:1049580018BF52EA43067FF4C5AE50EA41047FF41B
:104968000DAF52EA43057FF4EBAE12E74A0011D2CD
:1049780012F5001211D20DD56FF47873B3EB6252B1
:104988000ED44FEAC12343F0004343EA505323FABD
:1049980002F070474FF00000704750EA013002D132
:1049A8004FF0FF3070474FF00000704780B485B07B
:1049B80000AF78600B46FB701346BB700023FB7397
:1049C8007B68002B15D0FB780F2B12D8BB78002BF7
:1049D8000FD0BB78032B0CD87B681B68B978FA78A2
:1049E800520001FA02F21A437B681A600123FB7332
:1049F80001E00223FB73FB7B18461437BD465DF8C4
:104A0800047B704780B485B000AF78600B46FB70BC
:104A18001346BB700023FB737B68002B11D0FB7817
:104A28000F2B0ED8BB78012B0BD87B685B68B97845
:104A3800FA7801FA02F21A437B685A600123FB7381
:104A480001E00223FB73FB7B18461437BD465DF873
:104A5800047B704780B485B000AF78600B46FB706C
:104A68001346BB700023FB737B68002B12D0FB78C6
:104A78000F2B0FD8BB78032B0CD87B689B68B978B1
:104A8800FA78520001FA02F21A437B689A6001230D
:104A9800FB7301E00223FB73FB7B18461437BD460A
:104AA8005DF8047B704780B485B000AF78600B4632
:104AB800FB701346BB700023FB737B68002B12D07E
:104AC800FB780F2B0FD8BB78022B0CD87B68DB68E0
:104AD800B978FA78520001FA02F21A437B68DA6070
:104AE8000123FB7301E00223FB73FB7B1846143799
:104AF800BD465DF8047B704780B485B000AF786030
:104B08000B46FB701346BB700023FB73FB78072B27
:104B18000CD87B681B6AB978FA78920001FA02F21D
:104B28001A437B681A620123FB7311E0FB780F2B91
:104B38000CD87B685B6AB978FA78920001FA02F2BD
:104B48001A437B685A620123FB7301E00323FB735A
:104B5800FB7B18461437BD465DF8047B704780B56B
:104B680084B000AF78600023FB737B68002B42D0D1
:104B78007B6818687B681B7902221946FFF716FFC5
:104B88000346FB73FB7B012B0AD17B6818687B68A3
:104B980019797B689B791A46FFF734FF0346FB7344
:104BA800FB7B012B0AD17B6818687B6819797B68C5
:104BB800DB791A46FFF74EFF0346FB73FB7B012B9D
:104BC8000AD17B6818687B6819797B685B791A4613
:104BD800FFF792FF0346FB73FB7B012B0DD17B682C
:104BE80018687B6819797B681B7A1A46FFF75BFFA0
:104BF8000346FB7301E00323FB73FB7B1846103766
:104C0800BD4680BD80B483B000AF0346FB71FB791D
:104C1800002B45D0FB79072B42D800BF234BDB681C
:104C28001B0C03F00103012BF8D0204B1B69DB0F91
:104C380003F00103012B05D11C4B1D4A5A601B4B85
:104C48001C4A5A60194B1B69184A23F078031361F0
:104C5800164B1B69FA79D2001146144A0B431361AB
:104C6800124B1B69114A43F0020313610F4B1B6976
:104C78000E4A43F48033136100BF0C4BDB681B0CF6
:104C880003F00103012BF8D0084BDB68074A43F017
:104C98000103D360054B1B69044A23F00203136127
:104CA80000BF0C37BD465DF8047B7047003C0240EE
:104CB80023016745AB89EFCD80B487B000AFF860BA
:104CC800B9601346FB71BB68002B4ED000BF2A4B5E
:104CD800DB681B0C03F00103012BF8D0264B1B6982
:104CE800DB0F03F00103012B05D1234B234A5A6044
:104CF800214B234A5A60204B1B691F4A23F44073F7
:104D080013611D4B1B691C4A43F480731361002314
:104D1800FB7526E0184B1B69174A43F00103136122
:104D2800FB7D5B00BA681A44FB6812881A80FB682E
:104D38000233FB6000BF104BDB681B0C03F0010360
:104D4800012BF8D00C4BDB680B4A43F00103D3600E
:104D5800094B1B69084A23F001031361FB7D0133EA
:104D6800FB75FA7DFB799A42D4D300BF1C37BD4648
:104D78005DF8047B704700BF003C02402301674593
:104D8800AB89EFCD80B582B000AF0346FB71FB79EC
:104D98001846FFF737FF00BF0837BD4680BD000043
:104DA80080B483B000AF0123FB710F4B9B680E4AA0
:104DB80023F0030393600C4B1B680B4A43F0010379
:104DC80013600023FB71084B9B6823F47C4323F09A
:104DD800F003054A43F080039360FB7918460C37CB
:104DE800BD465DF8047B70470038024080B485B04A
:104DF80000AF03460A46FB711346BB710123FB73E0
:104E0800FB79042B48D8BB791F2B45D8FB79032B9A
:104E18003ED801A252F823F0314E00084B4E00084C
:104E2800654E00087F4E0008204B1B6BBA790121A4
:104E380001FA02F211461D4A0B4313630023FB7368
:104E480029E01A4B5B6BBA79012101FA02F211468B
:104E5800164A0B4353630023FB731CE0134B1B6C74
:104E6800BA79012101FA02F21146104A0B43136480
:104E78000023FB730FE00D4B5B6CBA79012101FA3B
:104E880002F21146094A0B4353640023FB7302E004
:104E98000323FB7302E001E00323FB73FB7B18464B
:104EA8001437BD465DF8047B704700BF00380240E8
:104EB80080B582B000AF194B1B68002B2AD00023A5
:104EC800FB71174B1B78002B16D1164B1B681B0C5C
:104ED800DBB203F00103FB71104B1B689847114BC1
:104EE8001B68104A23F0010313600E4B00225A601E
:104EF8000C4B00229A600DE0094B1B78012B09D15D
:104F0800084B1B681B0CDBB203F00103FB71034B5E
:104F18001B68984700BF0837BD4680BD3800002091
:104F28003C00002010E000E090B585B000AF78604C
:104F380039600023FB733B68002B00F045817B68D8
:104F4800002B00F041813B685B78002B02D0012BDD
:104F580072D0E1E03B685B681846FFF77BFA4FF0D8
:104F680000029F4BFFF7F0FA02460B469AA1D1E9DF
:104F78000001FFF713FC02460B4610461946FFF7DF
:104F8800F5FC0346974AA2FB03235B091C013B6817
:104F98005B681846FFF75EFA4FF00002904BFFF788
:104FA800D3FA02460B468CA1D1E90001FFF7F6FBC4
:104FB80002460B4610461946FFF7D8FC0246894BB5
:104FC800A3FB02135B09642101FB03F3D31A1B0142
:104FD8003233844AA2FB03235B0903F0F0031C4429
:104FE8003B685B681846FFF735FA4FF000027C4BC8
:104FF800FFF7AAFA02460B4677A1D1E90001FFF7AD
:10500800CDFB02460B4610461946FFF7AFFC024699
:10501800744BA3FB02135B09642101FB03F3D31A4E
:105028001B0132336F4AA2FB03235B0903F00F0312
:10503800E2187B689A606FE03B685B681846FFF788
:1050480009FA02460B46FFF7C9F802460B4662A169
:10505800D1E90001FFF7A2FB02460B4610461946AC
:10506800FFF784FC03465F4AA2FB03235B091C018C
:105078003B685B681846FFF7EDF902460B46FFF7F9
:10508800ADF802460B4654A1D1E90001FFF786FBB3
:1050980002460B4610461946FFF768FC0246514B7C
:1050A800A3FB02135B09642101FB03F3D31ADB00A2
:1050B80032334C4AA2FB03235B095B0003F4F87309
:1050C8001C443B685B681846FFF7C4F902460B4668
:1050D800FFF784F802460B463FA1D1E90001FFF72C
:1050E8005DFB02460B4610461946FFF73FFC024699
:1050F8003C4BA3FB02135B09642101FB03F3D31AA6
:10510800DB003233374AA2FB03235B0903F00703B2
:10511800E2187B689A6000BF3B685B78DA033B68FB
:105128001B7B5B031A433B681B7A1B031A433B68D0
:105138005B7A9B021A433B689B7A5B0213431A46CD
:105148007B68DA603B681B78022B14D0022B1FDCCB
:10515800002B02D0012B07D01AE07B68DB6843F0F4
:1051680008027B68DA6013E07B68DB6843F00402BE
:105178007B68DA600CE07B68DB6843F008027B68D8
:10518800DA607B68DB6843F004027B68DA6000BFA2
:105198003B68DB7A1A033B685B7BDB021A433B689C
:1051A800DB7B5B021A433B689B7B9B021A433B6891
:1051B8001B7C1B0213431A467B681A617B6800221A
:1051C8001A600123FB7301E00223FB73FB7B184683
:1051D8001437BD4690BD00BF0000000084D7A7412A
:1051E800000010401F85EB5180B485B000AF786097
:1051F8000023FB737B68002B08D07B68DB6843F4D3
:1052080000527B68DA600123FB7301E00223FB7321
:10521800FB7B18461437BD465DF8047B704780B4A5
:1052280085B000AF78600B46FB700023FB737B688A
:10523800002B1BD000BF7B681B68DB0903F0010350
:10524800002BF8D0FA787B685A6000BF7B681B682F
:105258009B0903F00103002BF8D07B681B6823F03F
:1052680040027B681A600123FB7301E00223FB7391
:10527800FB7B18461437BD465DF8047B704780B544
:1052880084B000AF786039600023FB737B68002B23
:1052980019D03B68002B16D00023BB600AE03A689F
:1052A800BB6813441B7819467868FFF7B8FFBB68DA
:1052B8000133BB603A68BB6813441B78002BEED1FE
:1052C8000123FB7301E00223FB73FB7B18461037B5
:1052D800BD4680BD80B485B000AF786039600023DA
:1052E800FB737B68002B12D03B68002B0FD000BFEC
:1052F8007B681B685B0903F00103002BF8D07B680F
:105308005B68DAB23B681A700123FB7301E0022381
:10531800FB73FB7B18461437BD465DF8047B70476A
:1053280080B500AF034B00221A60034B1B689847F7
:1053380000BF80BD001001404000002080B500AFD4
:10534800034B00221A60034B1B68984700BF80BDBF
:10535800004400404400002080B500AF034B002209
:105368001A60034B1B68984700BF80BD00140140BA
:105378004800002080B485B000AF0346FB71FB797C
:105388002F2B06D9FB79392B03D8FB79303BFB73DC
:1053980008E0FB79402B05D9FB79462B02D8FB792D
:1053A800373BFB73FB7B18461437BD465DF8047B1F
:1053B8007047000080B584B000AF78607B68013327
:1053C8001B781846FFF7D6FF0346BB737B6802338A
:1053D8001B781846FFF7CEFF03467B73BB7B1B0188
:1053E8005AB297F90D3013435BB23B737B680333B2
:1053F8001B781846FFF7BEFF0346FB727B68043331
:105408001B781846FFF7B6FF0346BB727B68053367
:105418001B781846FFF7AEFF03467B727B6806339E
:105428001B781846FFF7A6FF03463B72384B1B68EC
:105438001B0C1B04364A1360FB7A1A03BB7A1B0247
:105448001A437B7A1B011A433B7A13431A46304BA3
:105458001B6813432E4A13600023FB7344E0FB7B55
:105468009B0009337A6813441B781846FFF782FFBC
:105478000346FB72FB7B9B000A337A6813441B7854
:105488001846FFF777FF0346BB72FB7B9B000B3385
:105498007A6813441B781846FFF76CFF03467B7243
:1054A800FB7B9B000C337A6813441B781846FFF784
:1054B80061FF03463B727B7A1B031AB23B7A1B02DD
:1054C8001BB213431AB2FB7A1B011BB213431AB265
:1054D800BB7A1BB213431AB2FB7B91B20D4A22F876
:1054E8001310FB7B0133FB733B7B5B08DBB2FA7B5E
:1054F8009A42B4D3064B18683B7B5B08DBB21A466A
:105508000449FFF7D9FB00BF1037BD4680BD00BF77
:10551800000000204C00002080B582B000AF786009
:105528007B6808331B78342B0AD0342B0ADC302BE9
:1055380002D0312B08D005E07868FFF73BFF04E084
:1055480000BF02E000BF00E000BF00BF0837BD4653
:1055580080BD000080B500AF044B1B68044A13608F
:10556800034B1B68984700BF80BD00BF04000008BC
:105578007C01002080B588B000AF0023FB77FFF7DF
:105588000FFC00210020FFF731FC11210220FFF75A
:105598002DFC294A07F1100307CA83E80700274AA8
:1055A8003B1D07CA83E8070007F110031846FFF7F9
:1055B800D6FA3B1D1846FFF7D2FA21492148FFF7D2
:1055C800B3FC2048FFF710FE1F4B1B781A461F4BF1
:1055D800134419461B48FFF77DFE0346FB77FB7F04
:1055E800012B21D1184B1B781A46184B9B5C0A2BB0
:1055F80014D1174B1B78012B05D10020FFF7C2FBF4
:10560800134B00221A701148FFF786FF11490D4805
:10561800FFF735FE0C4B00221A7005E00A4B1B7889
:105628000133DAB2084B1A70084B1B7A312BCBD1F5
:10563800FFF790FFC8E700BF185700082457000875
:1056480008000020004400407801002014010020D8
:1056580004000020145700080D488546AFF3008069
:105668000C480D490D4A002302E0D458C4500433B5
:10567800C4188C42F9D30A4A0A4C002301E013608B
:105688000432A242FBD300F011F8FFF773FFFEE7E4
:1056980000000120000000201C00002038570008EE
:1056A8001C00002080010020FEE7000070B50D4DB1
:1056B8000D4C641BA4100026A64209D10B4D0C4CBE
:1056C80000F018F8641BA4100026A64205D170BD8E
:1056D80055F8043B98470136EEE755F8043B9847E0
:1056E8000136F2E7305700083057000830570008F5
:1056F80034570008F8B500BFF8BC08BC9E46704790
:0C570800F8B500BFF8BC08BC9E46704716
:105714004F4B00000000024002070001000000009F
:0C5724000000024003070001000000002C
:04573000BD4100086F
:04573400994100088F
:1057380000000008010000000200000000C2010093
:0C57480000000000000000000000000055
:040000050800566138
:00000001FF
